{
  "contractName": "EthStonks",
  "abi": [
    {
      "inputs": [
        {
          "internalType": "address",
          "name": "_tokenAddress",
          "type": "address"
        },
        {
          "internalType": "address",
          "name": "_bank",
          "type": "address"
        },
        {
          "internalType": "uint32",
          "name": "_open",
          "type": "uint32"
        },
        {
          "internalType": "contract EthStonksLibrary",
          "name": "_lib",
          "type": "address"
        },
        {
          "internalType": "address",
          "name": "_priceFeed",
          "type": "address"
        },
        {
          "internalType": "contract StonksGuy",
          "name": "_nft",
          "type": "address"
        }
      ],
      "stateMutability": "nonpayable",
      "type": "constructor"
    },
    {
      "anonymous": false,
      "inputs": [
        {
          "components": [
            {
              "internalType": "string",
              "name": "prod",
              "type": "string"
            },
            {
              "internalType": "string",
              "name": "spender",
              "type": "string"
            },
            {
              "internalType": "string",
              "name": "b1",
              "type": "string"
            },
            {
              "internalType": "string",
              "name": "b2",
              "type": "string"
            },
            {
              "internalType": "string",
              "name": "b3",
              "type": "string"
            },
            {
              "internalType": "string",
              "name": "b4",
              "type": "string"
            },
            {
              "internalType": "string",
              "name": "b5",
              "type": "string"
            },
            {
              "internalType": "uint256",
              "name": "round",
              "type": "uint256"
            },
            {
              "internalType": "uint256",
              "name": "cb",
              "type": "uint256"
            },
            {
              "internalType": "uint256",
              "name": "amount",
              "type": "uint256"
            }
          ],
          "indexed": false,
          "internalType": "struct EthStonks.BailoutEvent",
          "name": "e",
          "type": "tuple"
        }
      ],
      "name": "LogBailouts",
      "type": "event"
    },
    {
      "anonymous": false,
      "inputs": [
        {
          "indexed": false,
          "internalType": "string",
          "name": "name",
          "type": "string"
        },
        {
          "indexed": false,
          "internalType": "string",
          "name": "broker",
          "type": "string"
        },
        {
          "indexed": false,
          "internalType": "uint256",
          "name": "value",
          "type": "uint256"
        },
        {
          "indexed": false,
          "internalType": "bool",
          "name": "isBroker",
          "type": "bool"
        },
        {
          "indexed": false,
          "internalType": "bool",
          "name": "validBroker",
          "type": "bool"
        }
      ],
      "name": "LogBuy",
      "type": "event"
    },
    {
      "anonymous": false,
      "inputs": [
        {
          "indexed": false,
          "internalType": "uint256",
          "name": "index",
          "type": "uint256"
        },
        {
          "indexed": false,
          "internalType": "uint256",
          "name": "fund",
          "type": "uint256"
        },
        {
          "indexed": false,
          "internalType": "uint256",
          "name": "market",
          "type": "uint256"
        },
        {
          "indexed": false,
          "internalType": "uint256",
          "name": "timestamp",
          "type": "uint256"
        }
      ],
      "name": "LogHistory",
      "type": "event"
    },
    {
      "anonymous": false,
      "inputs": [
        {
          "indexed": false,
          "internalType": "string",
          "name": "name",
          "type": "string"
        },
        {
          "indexed": false,
          "internalType": "uint256",
          "name": "value",
          "type": "uint256"
        }
      ],
      "name": "LogInvest",
      "type": "event"
    },
    {
      "anonymous": false,
      "inputs": [
        {
          "indexed": false,
          "internalType": "string",
          "name": "name",
          "type": "string"
        },
        {
          "indexed": false,
          "internalType": "string",
          "name": "broker",
          "type": "string"
        },
        {
          "indexed": false,
          "internalType": "uint256",
          "name": "value",
          "type": "uint256"
        },
        {
          "indexed": false,
          "internalType": "bool",
          "name": "isBroker",
          "type": "bool"
        },
        {
          "indexed": false,
          "internalType": "bool",
          "name": "validBroker",
          "type": "bool"
        }
      ],
      "name": "LogPreMarketBuy",
      "type": "event"
    },
    {
      "anonymous": false,
      "inputs": [
        {
          "indexed": false,
          "internalType": "string",
          "name": "name",
          "type": "string"
        },
        {
          "indexed": false,
          "internalType": "uint256",
          "name": "value",
          "type": "uint256"
        }
      ],
      "name": "LogSell",
      "type": "event"
    },
    {
      "anonymous": false,
      "inputs": [
        {
          "indexed": false,
          "internalType": "string",
          "name": "name",
          "type": "string"
        },
        {
          "indexed": false,
          "internalType": "uint256",
          "name": "value",
          "type": "uint256"
        }
      ],
      "name": "LogWithdraw",
      "type": "event"
    },
    {
      "anonymous": false,
      "inputs": [
        {
          "indexed": false,
          "internalType": "string",
          "name": "name",
          "type": "string"
        }
      ],
      "name": "NewBroker",
      "type": "event"
    },
    {
      "anonymous": false,
      "inputs": [
        {
          "indexed": false,
          "internalType": "string",
          "name": "name",
          "type": "string"
        },
        {
          "indexed": false,
          "internalType": "uint256",
          "name": "divs",
          "type": "uint256"
        },
        {
          "indexed": false,
          "internalType": "uint256",
          "name": "trades",
          "type": "uint256"
        }
      ],
      "name": "NewChad",
      "type": "event"
    },
    {
      "anonymous": false,
      "inputs": [
        {
          "indexed": false,
          "internalType": "address",
          "name": "addr",
          "type": "address"
        },
        {
          "indexed": false,
          "internalType": "string",
          "name": "name",
          "type": "string"
        }
      ],
      "name": "NewPlayer",
      "type": "event"
    },
    {
      "anonymous": false,
      "inputs": [
        {
          "indexed": false,
          "internalType": "uint256",
          "name": "endBlock",
          "type": "uint256"
        }
      ],
      "name": "NewRound",
      "type": "event"
    },
    {
      "inputs": [],
      "name": "BROKER_REQ",
      "outputs": [
        {
          "internalType": "uint256",
          "name": "",
          "type": "uint256"
        }
      ],
      "stateMutability": "view",
      "type": "function"
    },
    {
      "inputs": [],
      "name": "MIN_BUY",
      "outputs": [
        {
          "internalType": "uint256",
          "name": "",
          "type": "uint256"
        }
      ],
      "stateMutability": "view",
      "type": "function"
    },
    {
      "inputs": [],
      "name": "MIN_NFT_BUY",
      "outputs": [
        {
          "internalType": "uint256",
          "name": "",
          "type": "uint256"
        }
      ],
      "stateMutability": "view",
      "type": "function"
    },
    {
      "inputs": [
        {
          "internalType": "address",
          "name": "",
          "type": "address"
        }
      ],
      "name": "addressToName",
      "outputs": [
        {
          "internalType": "string",
          "name": "",
          "type": "string"
        }
      ],
      "stateMutability": "view",
      "type": "function"
    },
    {
      "inputs": [],
      "name": "devBal",
      "outputs": [
        {
          "internalType": "uint256",
          "name": "",
          "type": "uint256"
        }
      ],
      "stateMutability": "view",
      "type": "function"
    },
    {
      "inputs": [],
      "name": "divBal",
      "outputs": [
        {
          "internalType": "uint256",
          "name": "",
          "type": "uint256"
        }
      ],
      "stateMutability": "view",
      "type": "function"
    },
    {
      "inputs": [
        {
          "internalType": "string",
          "name": "",
          "type": "string"
        }
      ],
      "name": "nameToAddress",
      "outputs": [
        {
          "internalType": "address",
          "name": "",
          "type": "address"
        }
      ],
      "stateMutability": "view",
      "type": "function"
    },
    {
      "inputs": [],
      "name": "pmDivBal",
      "outputs": [
        {
          "internalType": "uint256",
          "name": "",
          "type": "uint256"
        }
      ],
      "stateMutability": "view",
      "type": "function"
    },
    {
      "inputs": [],
      "name": "r",
      "outputs": [
        {
          "internalType": "uint256",
          "name": "",
          "type": "uint256"
        }
      ],
      "stateMutability": "view",
      "type": "function"
    },
    {
      "inputs": [
        {
          "internalType": "address",
          "name": "addr",
          "type": "address"
        }
      ],
      "name": "setBank",
      "outputs": [],
      "stateMutability": "nonpayable",
      "type": "function"
    },
    {
      "inputs": [
        {
          "internalType": "uint256",
          "name": "amount",
          "type": "uint256"
        }
      ],
      "name": "seedMarket",
      "outputs": [],
      "stateMutability": "nonpayable",
      "type": "function"
    },
    {
      "inputs": [
        {
          "internalType": "address",
          "name": "addr",
          "type": "address"
        }
      ],
      "name": "grantBroker",
      "outputs": [],
      "stateMutability": "nonpayable",
      "type": "function"
    },
    {
      "inputs": [
        {
          "internalType": "uint8",
          "name": "_v",
          "type": "uint8"
        },
        {
          "internalType": "bytes32",
          "name": "_r",
          "type": "bytes32"
        },
        {
          "internalType": "bytes32",
          "name": "_s",
          "type": "bytes32"
        }
      ],
      "name": "claimBroker",
      "outputs": [],
      "stateMutability": "nonpayable",
      "type": "function"
    },
    {
      "inputs": [
        {
          "internalType": "string",
          "name": "_featuredBroker",
          "type": "string"
        }
      ],
      "name": "featureBroker",
      "outputs": [],
      "stateMutability": "nonpayable",
      "type": "function"
    },
    {
      "inputs": [],
      "name": "devWithdraw",
      "outputs": [],
      "stateMutability": "nonpayable",
      "type": "function"
    },
    {
      "inputs": [
        {
          "internalType": "uint256",
          "name": "_amount",
          "type": "uint256"
        },
        {
          "internalType": "string",
          "name": "_broker",
          "type": "string"
        }
      ],
      "name": "preMarketBuy",
      "outputs": [],
      "stateMutability": "nonpayable",
      "type": "function"
    },
    {
      "inputs": [
        {
          "internalType": "uint256",
          "name": "_amount",
          "type": "uint256"
        },
        {
          "internalType": "string",
          "name": "_broker",
          "type": "string"
        }
      ],
      "name": "buy",
      "outputs": [],
      "stateMutability": "nonpayable",
      "type": "function"
    },
    {
      "inputs": [],
      "name": "invest",
      "outputs": [],
      "stateMutability": "nonpayable",
      "type": "function"
    },
    {
      "inputs": [],
      "name": "sell",
      "outputs": [],
      "stateMutability": "nonpayable",
      "type": "function"
    },
    {
      "inputs": [],
      "name": "withdrawBonus",
      "outputs": [],
      "stateMutability": "nonpayable",
      "type": "function"
    },
    {
      "inputs": [
        {
          "internalType": "address",
          "name": "addr",
          "type": "address"
        }
      ],
      "name": "stonkNames",
      "outputs": [
        {
          "internalType": "string",
          "name": "_name",
          "type": "string"
        },
        {
          "internalType": "string",
          "name": "_broker",
          "type": "string"
        },
        {
          "internalType": "string",
          "name": "_featuredBroker",
          "type": "string"
        },
        {
          "internalType": "string",
          "name": "_spender",
          "type": "string"
        },
        {
          "internalType": "string",
          "name": "_producer",
          "type": "string"
        },
        {
          "internalType": "string",
          "name": "_chad",
          "type": "string"
        }
      ],
      "stateMutability": "view",
      "type": "function"
    },
    {
      "inputs": [
        {
          "internalType": "address",
          "name": "addr",
          "type": "address"
        },
        {
          "internalType": "uint256",
          "name": "buyAmount",
          "type": "uint256"
        }
      ],
      "name": "stonkNumbers",
      "outputs": [
        {
          "internalType": "uint256",
          "name": "companies",
          "type": "uint256"
        },
        {
          "internalType": "uint256",
          "name": "stonks",
          "type": "uint256"
        },
        {
          "internalType": "uint256",
          "name": "receiveBuy",
          "type": "uint256"
        },
        {
          "internalType": "uint256",
          "name": "receiveSell",
          "type": "uint256"
        },
        {
          "internalType": "uint256",
          "name": "dividends",
          "type": "uint256"
        }
      ],
      "stateMutability": "nonpayable",
      "type": "function"
    },
    {
      "inputs": [],
      "name": "gameData",
      "outputs": [
        {
          "internalType": "uint256",
          "name": "rnd",
          "type": "uint256"
        },
        {
          "internalType": "uint256",
          "name": "index",
          "type": "uint256"
        },
        {
          "internalType": "uint256",
          "name": "open",
          "type": "uint256"
        },
        {
          "internalType": "uint256",
          "name": "end",
          "type": "uint256"
        },
        {
          "internalType": "uint256",
          "name": "fund",
          "type": "uint256"
        },
        {
          "internalType": "uint256",
          "name": "market",
          "type": "uint256"
        },
        {
          "internalType": "uint256",
          "name": "bailout",
          "type": "uint256"
        }
      ],
      "stateMutability": "nonpayable",
      "type": "function"
    },
    {
      "inputs": [
        {
          "internalType": "uint256",
          "name": "rnd",
          "type": "uint256"
        },
        {
          "internalType": "int8",
          "name": "index",
          "type": "int8"
        }
      ],
      "name": "lastBuy",
      "outputs": [
        {
          "internalType": "address",
          "name": "",
          "type": "address"
        }
      ],
      "stateMutability": "view",
      "type": "function"
    },
    {
      "inputs": [
        {
          "internalType": "address",
          "name": "addr",
          "type": "address"
        },
        {
          "internalType": "uint256",
          "name": "rnd",
          "type": "uint256"
        }
      ],
      "name": "userRoundStats",
      "outputs": [
        {
          "internalType": "uint256",
          "name": "",
          "type": "uint256"
        },
        {
          "internalType": "uint256",
          "name": "",
          "type": "uint256"
        },
        {
          "internalType": "uint256",
          "name": "",
          "type": "uint256"
        },
        {
          "internalType": "uint256",
          "name": "",
          "type": "uint256"
        },
        {
          "internalType": "uint256",
          "name": "",
          "type": "uint256"
        },
        {
          "internalType": "uint256",
          "name": "",
          "type": "uint256"
        },
        {
          "internalType": "uint256",
          "name": "",
          "type": "uint256"
        },
        {
          "internalType": "uint256",
          "name": "",
          "type": "uint256"
        },
        {
          "internalType": "uint256",
          "name": "",
          "type": "uint256"
        }
      ],
      "stateMutability": "view",
      "type": "function"
    },
    {
      "inputs": [
        {
          "internalType": "address",
          "name": "addr",
          "type": "address"
        },
        {
          "internalType": "uint256",
          "name": "rnd",
          "type": "uint256"
        }
      ],
      "name": "calculatePreMarketDivs",
      "outputs": [
        {
          "internalType": "uint256",
          "name": "",
          "type": "uint256"
        }
      ],
      "stateMutability": "view",
      "type": "function"
    },
    {
      "inputs": [
        {
          "internalType": "uint256",
          "name": "rnd",
          "type": "uint256"
        },
        {
          "internalType": "uint256",
          "name": "ind",
          "type": "uint256"
        }
      ],
      "name": "getAddrById",
      "outputs": [
        {
          "internalType": "address",
          "name": "",
          "type": "address"
        }
      ],
      "stateMutability": "view",
      "type": "function"
    },
    {
      "inputs": [
        {
          "internalType": "uint256",
          "name": "rnd",
          "type": "uint256"
        },
        {
          "internalType": "address",
          "name": "addr",
          "type": "address"
        }
      ],
      "name": "getIdByAddr",
      "outputs": [
        {
          "internalType": "uint256",
          "name": "",
          "type": "uint256"
        }
      ],
      "stateMutability": "view",
      "type": "function"
    },
    {
      "inputs": [
        {
          "internalType": "uint256",
          "name": "rnd",
          "type": "uint256"
        }
      ],
      "name": "getRoundIndex",
      "outputs": [
        {
          "internalType": "uint256",
          "name": "",
          "type": "uint256"
        }
      ],
      "stateMutability": "view",
      "type": "function"
    },
    {
      "inputs": [
        {
          "internalType": "address",
          "name": "addr",
          "type": "address"
        },
        {
          "internalType": "uint256",
          "name": "rnd",
          "type": "uint256"
        },
        {
          "internalType": "uint256",
          "name": "key",
          "type": "uint256"
        }
      ],
      "name": "getPlayerMetric",
      "outputs": [
        {
          "internalType": "uint256",
          "name": "",
          "type": "uint256"
        }
      ],
      "stateMutability": "view",
      "type": "function"
    },
    {
      "inputs": [],
      "name": "leaderNumbers",
      "outputs": [
        {
          "internalType": "uint256",
          "name": "",
          "type": "uint256"
        },
        {
          "internalType": "uint256",
          "name": "",
          "type": "uint256"
        },
        {
          "internalType": "uint256",
          "name": "",
          "type": "uint256"
        },
        {
          "internalType": "uint256",
          "name": "",
          "type": "uint256"
        },
        {
          "internalType": "uint256",
          "name": "",
          "type": "uint256"
        },
        {
          "internalType": "uint256",
          "name": "",
          "type": "uint256"
        },
        {
          "internalType": "uint256",
          "name": "",
          "type": "uint256"
        }
      ],
      "stateMutability": "nonpayable",
      "type": "function"
    },
    {
      "inputs": [
        {
          "internalType": "uint256",
          "name": "rnd",
          "type": "uint256"
        },
        {
          "internalType": "uint256",
          "name": "key",
          "type": "uint256"
        }
      ],
      "name": "getRoundMetric",
      "outputs": [
        {
          "internalType": "uint256",
          "name": "",
          "type": "uint256"
        }
      ],
      "stateMutability": "view",
      "type": "function"
    },
    {
      "inputs": [
        {
          "internalType": "uint256",
          "name": "rnd",
          "type": "uint256"
        }
      ],
      "name": "getRoundLastBuyIndex",
      "outputs": [
        {
          "internalType": "int8",
          "name": "",
          "type": "int8"
        }
      ],
      "stateMutability": "view",
      "type": "function"
    },
    {
      "inputs": [
        {
          "internalType": "string",
          "name": "name",
          "type": "string"
        }
      ],
      "name": "checkName",
      "outputs": [
        {
          "internalType": "bool",
          "name": "",
          "type": "bool"
        }
      ],
      "stateMutability": "view",
      "type": "function"
    },
    {
      "inputs": [
        {
          "internalType": "string",
          "name": "name",
          "type": "string"
        }
      ],
      "name": "registerName",
      "outputs": [],
      "stateMutability": "nonpayable",
      "type": "function"
    },
    {
      "inputs": [
        {
          "internalType": "string",
          "name": "name",
          "type": "string"
        },
        {
          "internalType": "uint8",
          "name": "_v",
          "type": "uint8"
        },
        {
          "internalType": "bytes32",
          "name": "_r",
          "type": "bytes32"
        },
        {
          "internalType": "bytes32",
          "name": "_s",
          "type": "bytes32"
        }
      ],
      "name": "registerNameAndClaim",
      "outputs": [],
      "stateMutability": "nonpayable",
      "type": "function"
    },
    {
      "inputs": [
        {
          "internalType": "string",
          "name": "_str",
          "type": "string"
        }
      ],
      "name": "nameLength",
      "outputs": [
        {
          "internalType": "uint256",
          "name": "length",
          "type": "uint256"
        }
      ],
      "stateMutability": "pure",
      "type": "function"
    },
    {
      "inputs": [
        {
          "internalType": "address",
          "name": "account",
          "type": "address"
        }
      ],
      "name": "toString",
      "outputs": [
        {
          "internalType": "string",
          "name": "",
          "type": "string"
        }
      ],
      "stateMutability": "pure",
      "type": "function"
    },
    {
      "inputs": [
        {
          "internalType": "uint256",
          "name": "value",
          "type": "uint256"
        }
      ],
      "name": "toString",
      "outputs": [
        {
          "internalType": "string",
          "name": "",
          "type": "string"
        }
      ],
      "stateMutability": "pure",
      "type": "function"
    },
    {
      "inputs": [
        {
          "internalType": "bytes",
          "name": "data",
          "type": "bytes"
        }
      ],
      "name": "toString",
      "outputs": [
        {
          "internalType": "string",
          "name": "",
          "type": "string"
        }
      ],
      "stateMutability": "pure",
      "type": "function"
    }
  ],
  "bytecode": "0x608060405260016006556040518060400160405280600381526020017f4d72460000000000000000000000000000000000000000000000000000000000815250600a908051906020019062000056929190620005d4565b503480156200006457600080fd5b50604051620063b9380380620063b983398181016040528101906200008a9190620006e6565b6000600560006006548152602001908152602001600020905060008160010160003373ffffffffffffffffffffffffffffffffffffffff1673ffffffffffffffffffffffffffffffffffffffff168152602001908152602001600020541415620001e4573381600001600083600c01600081819054906101000a900463ffffffff168092919060010191906101000a81548163ffffffff021916908363ffffffff16021790555063ffffffff16815260200190815260200160002060006101000a81548173ffffffffffffffffffffffffffffffffffffffff021916908373ffffffffffffffffffffffffffffffffffffffff16021790555080600c0160009054906101000a900463ffffffff1663ffffffff168160010160003373ffffffffffffffffffffffffffffffffffffffff1673ffffffffffffffffffffffffffffffffffffffff168152602001908152602001600020819055505b81600e60006101000a81548173ffffffffffffffffffffffffffffffffffffffff021916908373ffffffffffffffffffffffffffffffffffffffff16021790555083600c60006101000a81548173ffffffffffffffffffffffffffffffffffffffff021916908373ffffffffffffffffffffffffffffffffffffffff16021790555086600b60006101000a81548173ffffffffffffffffffffffffffffffffffffffff021916908373ffffffffffffffffffffffffffffffffffffffff16021790555085600160006101000a81548173ffffffffffffffffffffffffffffffffffffffff021916908373ffffffffffffffffffffffffffffffffffffffff160217905550336000806101000a81548173ffffffffffffffffffffffffffffffffffffffff021916908373ffffffffffffffffffffffffffffffffffffffff1602179055506040518060400160405280600381526020017f4d72460000000000000000000000000000000000000000000000000000000000815250600260008060009054906101000a900473ffffffffffffffffffffffffffffffffffffffff1673ffffffffffffffffffffffffffffffffffffffff1673ffffffffffffffffffffffffffffffffffffffff1681526020019081526020016000209080519060200190620003d3929190620005d4565b5060008054906101000a900473ffffffffffffffffffffffffffffffffffffffff1660036040516200040590620007be565b908152602001604051809103902060006101000a81548173ffffffffffffffffffffffffffffffffffffffff021916908373ffffffffffffffffffffffffffffffffffffffff16021790555060008054906101000a900473ffffffffffffffffffffffffffffffffffffffff1660056000600654815260200190815260200160002060080160006101000a81548173ffffffffffffffffffffffffffffffffffffffff021916908373ffffffffffffffffffffffffffffffffffffffff160217905550620151808503600560006006548152602001908152602001600020600c0160046101000a81548163ffffffff021916908363ffffffff16021790555064c92a69c000600560006006548152602001908152602001600020600501819055506203f4808501600560006006548152602001908152602001600020600c0160086101000a81548163ffffffff021916908363ffffffff160217905550662386f26fc10000600560006006548152602001908152602001600020600b018190555082600d60006101000a81548173ffffffffffffffffffffffffffffffffffffffff021916908373ffffffffffffffffffffffffffffffffffffffff16021790555050505050505050620008b4565b828054600181600116156101000203166002900490600052602060002090601f0160209004810192826200060c576000855562000658565b82601f106200062757805160ff191683800117855562000658565b8280016001018555821562000658579182015b82811115620006575782518255916020019190600101906200063a565b5b5090506200066791906200066b565b5090565b5b80821115620006865760008160009055506001016200066c565b5090565b6000815190506200069b816200084c565b92915050565b600081519050620006b28162000866565b92915050565b600081519050620006c98162000880565b92915050565b600081519050620006e0816200089a565b92915050565b60008060008060008060c087890312156200070057600080fd5b60006200071089828a016200068a565b96505060206200072389828a016200068a565b95505060406200073689828a01620006cf565b94505060606200074989828a01620006a1565b93505060806200075c89828a016200068a565b92505060a06200076f89828a01620006b8565b9150509295509295509295565b60006200078b600383620007d5565b91507f4d724600000000000000000000000000000000000000000000000000000000006000830152600382019050919050565b6000620007cb826200077c565b9150819050919050565b600081905092915050565b6000620007ed826200081c565b9050919050565b60006200080182620007e0565b9050919050565b60006200081582620007e0565b9050919050565b600073ffffffffffffffffffffffffffffffffffffffff82169050919050565b600063ffffffff82169050919050565b6200085781620007e0565b81146200086357600080fd5b50565b6200087181620007f4565b81146200087d57600080fd5b50565b6200088b8162000808565b81146200089757600080fd5b50565b620008a5816200083c565b8114620008b157600080fd5b50565b615af580620008c46000396000f3fe608060405234801561001057600080fd5b50600436106102485760003560e01c80636c7f95271161013b578063c5051104116100b8578063e8b5e51f1161007c578063e8b5e51f14610746578063f26a190f14610750578063f3f544901461076c578063fa0a80d6146107a0578063fa24f743146107d857610248565b8063c505110414610677578063d26a18ce146106ac578063d7a52259146106c8578063db9bcc48146106f8578063e2a04b621461071657610248565b8063895265d1116100ff578063895265d1146105e557806393b7586e14610603578063a9e5539714610633578063ad606c7214610651578063b7dc3b181461065b57610248565b80636c7f95271461051b5780636c8ae38c1461054b57806371aad10d1461056957806380aaddee1461059957806380ab66f3146105b557610248565b80633b66640b116101c957806356ca623e1161018d57806356ca623e1461047757806356eac451146104a75780636122a0eb146104c557806366de84ec146104e15780636900a3ae146104eb57610248565b80633b66640b146103c157806345710074146103f157806348ada1de146103fb57806349b8c75814610417578063540bdfa31461044757610248565b80632f6aabc5116102105780632f6aabc5146103155780632ffb2a431461034557806333795ac3146103695780633af96b90146103875780633b653755146103a557610248565b80630830602b1461024d57806308d88aad14610269578063090d23b9146102995780631400d1e4146102b557806323044877146102e5575b600080fd5b610267600480360381019061026291906149c3565b6107fc565b005b610283600480360381019061027e9190614a88565b610b63565b6040516102909190615371565b60405180910390f35b6102b360048036038101906102ae91906148a5565b610bac565b005b6102cf60048036038101906102ca91906149c3565b610c48565b6040516102dc9190615422565b60405180910390f35b6102ff60048036038101906102fa9190614b1b565b610d8e565b60405161030c919061562c565b60405180910390f35b61032f600480360381019061032a9190614ac9565b610dec565b60405161033c919061562c565b60405180910390f35b61034d610e1e565b60405161036097969594939291906156cc565b60405180910390f35b610371610f63565b60405161037e919061562c565b60405180910390f35b61038f610f69565b60405161039c919061562c565b60405180910390f35b6103bf60048036038101906103ba9190614ac9565b610f70565b005b6103db60048036038101906103d69190614beb565b61137b565b6040516103e89190615371565b60405180910390f35b6103f96113cd565b005b610415600480360381019061041091906148a5565b6115f5565b005b610431600480360381019061042c9190614b57565b611720565b60405161043e9190615371565b60405180910390f35b610461600480360381019061045c91906148ce565b611778565b60405161046e919061562c565b60405180910390f35b610491600480360381019061048c91906148a5565b6118ad565b60405161049e919061549d565b60405180910390f35b6104af6118de565b6040516104bc919061562c565b60405180910390f35b6104df60048036038101906104da9190614db3565b6118e6565b005b6104e9611bf2565b005b61050560048036038101906105009190614ac9565b611d0f565b604051610512919061549d565b60405180910390f35b61053560048036038101906105309190614ac9565b611d40565b6040516105429190615482565b60405180910390f35b610553611d6d565b604051610560919061562c565b60405180910390f35b610583600480360381019061057e9190614982565b611d73565b604051610590919061549d565b60405180910390f35b6105b360048036038101906105ae9190614b93565b611ff7565b005b6105cf60048036038101906105ca919061490a565b612550565b6040516105dc919061562c565b60405180910390f35b6105ed612b48565b6040516105fa919061562c565b60405180910390f35b61061d60048036038101906106189190614a88565b612b50565b60405161062a919061562c565b60405180910390f35b61063b612cdc565b604051610648919061562c565b60405180910390f35b610659612ce2565b005b61067560048036038101906106709190614b93565b612e18565b005b610691600480360381019061068c91906148a5565b613371565b6040516106a3969594939291906154bf565b60405180910390f35b6106c660048036038101906106c19190614a08565b613a69565b005b6106e260048036038101906106dd9190614beb565b613a85565b6040516106ef919061562c565b60405180910390f35b610700613c6b565b60405161070d919061562c565b60405180910390f35b610730600480360381019061072b91906148a5565b613c71565b60405161073d919061549d565b60405180910390f35b61074e613d21565b005b61076a600480360381019061076591906149c3565b613f49565b005b610786600480360381019061078191906148ce565b613fb7565b604051610797959493929190615679565b60405180910390f35b6107ba60048036038101906107b591906148ce565b614103565b6040516107cf9998979695949392919061573b565b60405180910390f35b6107e0614241565b6040516107f397969594939291906156cc565b60405180910390f35b6000600560006006548152602001908152602001600020905060008160010160003373ffffffffffffffffffffffffffffffffffffffff1673ffffffffffffffffffffffffffffffffffffffff168152602001908152602001600020541415610955573381600001600083600c01600081819054906101000a900463ffffffff168092919060010191906101000a81548163ffffffff021916908363ffffffff16021790555063ffffffff16815260200190815260200160002060006101000a81548173ffffffffffffffffffffffffffffffffffffffff021916908373ffffffffffffffffffffffffffffffffffffffff16021790555080600c0160009054906101000a900463ffffffff1663ffffffff168160010160003373ffffffffffffffffffffffffffffffffffffffff1673ffffffffffffffffffffffffffffffffffffffff168152602001908152602001600020819055505b82828080601f016020809104026020016040519081016040528093929190818152602001838380828437600081840152601f19601f8201169050808301925050505050505060006109a582612b50565b9050600c8111156109b557600080fd5b60038110156109c357600080fd5b6109cc82614386565b6109d557600080fd5b600073ffffffffffffffffffffffffffffffffffffffff16600386866040516109ff9291906152c6565b908152602001604051809103902060009054906101000a900473ffffffffffffffffffffffffffffffffffffffff1673ffffffffffffffffffffffffffffffffffffffff1614610a4e57600080fd5b6000600260003373ffffffffffffffffffffffffffffffffffffffff1673ffffffffffffffffffffffffffffffffffffffff16815260200190815260200160002080546001816001161561010002031660029004905014610aae57600080fd5b8484600260003373ffffffffffffffffffffffffffffffffffffffff1673ffffffffffffffffffffffffffffffffffffffff1681526020019081526020016000209190610afc929190614623565b503360038686604051610b109291906152c6565b908152602001604051809103902060006101000a81548173ffffffffffffffffffffffffffffffffffffffff021916908373ffffffffffffffffffffffffffffffffffffffff1602179055505050505050565b6003818051602081018201805184825260208301602085012081835280955050505050506000915054906101000a900473ffffffffffffffffffffffffffffffffffffffff1681565b60008054906101000a900473ffffffffffffffffffffffffffffffffffffffff1673ffffffffffffffffffffffffffffffffffffffff163373ffffffffffffffffffffffffffffffffffffffff1614610c0457600080fd5b80600160006101000a81548173ffffffffffffffffffffffffffffffffffffffff021916908373ffffffffffffffffffffffffffffffffffffffff16021790555050565b600080610c9884848080601f016020809104026020016040519081016040528093929190818152602001838380828437600081840152601f19601f82011690508083019250505050505050612b50565b90506003811080610ca95750600c81115b15610cb8576000915050610d88565b610d0584848080601f016020809104026020016040519081016040528093929190818152602001838380828437600081840152601f19601f82011690508083019250505050505050614386565b15610d8257600073ffffffffffffffffffffffffffffffffffffffff1660038585604051610d349291906152c6565b908152602001604051809103902060009054906101000a900473ffffffffffffffffffffffffffffffffffffffff1673ffffffffffffffffffffffffffffffffffffffff1614915050610d88565b60009150505b92915050565b60006005600084815260200190815260200160002060010160008373ffffffffffffffffffffffffffffffffffffffff1673ffffffffffffffffffffffffffffffffffffffff16815260200190815260200160002054905092915050565b600060056000838152602001908152602001600020600c01600c9054906101000a900461ffff1661ffff169050919050565b600080600080600080600080600c60009054906101000a900473ffffffffffffffffffffffffffffffffffffffff1673ffffffffffffffffffffffffffffffffffffffff166040516024016040516020818303038152906040527f2ffb2a43000000000000000000000000000000000000000000000000000000007bffffffffffffffffffffffffffffffffffffffffffffffffffffffff19166020820180517bffffffffffffffffffffffffffffffffffffffffffffffffffffffff8381831617835250505050604051610ef39190615287565b600060405180830381855af49150503d8060008114610f2e576040519150601f19603f3d011682016040523d82523d6000602084013e610f33565b606091505b5091505080806020019051810190610f4b9190614c9e565b97509750975097509750975097505090919293949596565b60085481565b620f424081565b80620f4240811015610fb7576040517f08c379a0000000000000000000000000000000000000000000000000000000008152600401610fae9061560c565b60405180910390fd5b80600b60009054906101000a900473ffffffffffffffffffffffffffffffffffffffff1673ffffffffffffffffffffffffffffffffffffffff1663dd62ed3e33306040518363ffffffff1660e01b81526004016110159291906153a7565b60206040518083038186803b15801561102d57600080fd5b505afa158015611041573d6000803e3d6000fd5b505050506040513d601f19601f820116820180604052508101906110659190614af2565b10156110a6576040517f08c379a000000000000000000000000000000000000000000000000000000000815260040161109d906155ac565b60405180910390fd5b80600b60009054906101000a900473ffffffffffffffffffffffffffffffffffffffff1673ffffffffffffffffffffffffffffffffffffffff166370a08231336040518263ffffffff1660e01b8152600401611102919061538c565b60206040518083038186803b15801561111a57600080fd5b505afa15801561112e573d6000803e3d6000fd5b505050506040513d601f19601f820116820180604052508101906111529190614af2565b1015611193576040517f08c379a000000000000000000000000000000000000000000000000000000000815260040161118a906155cc565b60405180910390fd5b60008054906101000a900473ffffffffffffffffffffffffffffffffffffffff1673ffffffffffffffffffffffffffffffffffffffff163373ffffffffffffffffffffffffffffffffffffffff16146111eb57600080fd5b600560006006548152602001908152602001600020600c0160049054906101000a900463ffffffff16620151800163ffffffff164210611260576040517f08c379a00000000000000000000000000000000000000000000000000000000081526004016112579061558c565b60405180910390fd5b600c60009054906101000a900473ffffffffffffffffffffffffffffffffffffffff1673ffffffffffffffffffffffffffffffffffffffff16826040516024016112aa919061562c565b6040516020818303038152906040527f3b653755000000000000000000000000000000000000000000000000000000007bffffffffffffffffffffffffffffffffffffffffffffffffffffffff19166020820180517bffffffffffffffffffffffffffffffffffffffffffffffffffffffff83818316178352505050506040516113349190615287565b600060405180830381855af49150503d806000811461136f576040519150601f19603f3d011682016040523d82523d6000602084013e611374565b606091505b5050505050565b600060056000848152602001908152602001600020600001600083815260200190815260200160002060009054906101000a900473ffffffffffffffffffffffffffffffffffffffff16905092915050565b600560006006548152602001908152602001600020600c0160049054906101000a900463ffffffff16620151800163ffffffff164211611442576040517f08c379a00000000000000000000000000000000000000000000000000000000081526004016114399061556c565b60405180910390fd5b6000600260003373ffffffffffffffffffffffffffffffffffffffff1673ffffffffffffffffffffffffffffffffffffffff168152602001908152602001600020805460018160011615610100020316600290049050116114d8576040517f08c379a00000000000000000000000000000000000000000000000000000000081526004016114cf906155ec565b60405180910390fd5b60005a9050600c60009054906101000a900473ffffffffffffffffffffffffffffffffffffffff1673ffffffffffffffffffffffffffffffffffffffff166040516024016040516020818303038152906040527f45710074000000000000000000000000000000000000000000000000000000007bffffffffffffffffffffffffffffffffffffffffffffffffffffffff19166020820180517bffffffffffffffffffffffffffffffffffffffffffffffffffffffff83818316178352505050506040516115a69190615287565b600060405180830381855af49150503d80600081146115e1576040519150601f19603f3d011682016040523d82523d6000602084013e6115e6565b606091505b5050506115f2816144fe565b50565b60008054906101000a900473ffffffffffffffffffffffffffffffffffffffff1673ffffffffffffffffffffffffffffffffffffffff163373ffffffffffffffffffffffffffffffffffffffff161461164d57600080fd5b6001600460008373ffffffffffffffffffffffffffffffffffffffff1673ffffffffffffffffffffffffffffffffffffffff16815260200190815260200160002060000160006101000a81548160ff0219169083151502179055507f2c27af2ff930faa587cc7012f6c34b11fc213dbd1bcc3e655a8a0734d2c4956d600260008373ffffffffffffffffffffffffffffffffffffffff1673ffffffffffffffffffffffffffffffffffffffff168152602001908152602001600020604051611715919061554a565b60405180910390a150565b60006005600084815260200190815260200160002060090160008360000b60000b815260200190815260200160002060009054906101000a900473ffffffffffffffffffffffffffffffffffffffff16905092915050565b600080600460008573ffffffffffffffffffffffffffffffffffffffff1673ffffffffffffffffffffffffffffffffffffffff16815260200190815260200160002060040160008481526020019081526020016000206000015414156117e157600090506118a7565b6000600560008481526020019081526020016000206004015490506000600560008581526020019081526020016000206003015490506000600460008773ffffffffffffffffffffffffffffffffffffffff1673ffffffffffffffffffffffffffffffffffffffff168152602001908152602001600020600401600086815260200190815260200160002060000154905060006801000000000000000084846801000000000000000085028161189357fe5b04028161189c57fe5b049050809450505050505b92915050565b60606118d7826040516020016118c3919061526c565b604051602081830303815290604052611d73565b9050919050565b6305f5e10081565b600460003373ffffffffffffffffffffffffffffffffffffffff1673ffffffffffffffffffffffffffffffffffffffff16815260200190815260200160002060000160009054906101000a900460ff161561194057600080fd5b60006040518060400160405280601c81526020017f19457468657265756d205369676e6564204d6573736167653a0a33320000000081525090506000469050600061198a336118ad565b61199383611d0f565b6040516020016119a49291906152f6565b60405160208183030381529060405290506000816040516020016119c891906152df565b604051602081830303815290604052805190602001209050600084826040516020016119f592919061529e565b604051602081830303815290604052905060008180519060200120905060006001828b8b8b60405160008152602001604052604051611a37949392919061543d565b6020604051602081039080840390855afa158015611a59573d6000803e3d6000fd5b50505060206040510351905060008054906101000a900473ffffffffffffffffffffffffffffffffffffffff1673ffffffffffffffffffffffffffffffffffffffff168173ffffffffffffffffffffffffffffffffffffffff161481604051602001611ac59190615330565b60405160208183030381529060405290611b15576040517f08c379a0000000000000000000000000000000000000000000000000000000008152600401611b0c919061549d565b60405180910390fd5b506001600460003373ffffffffffffffffffffffffffffffffffffffff1673ffffffffffffffffffffffffffffffffffffffff16815260200190815260200160002060000160006101000a81548160ff0219169083151502179055507f2c27af2ff930faa587cc7012f6c34b11fc213dbd1bcc3e655a8a0734d2c4956d600260003373ffffffffffffffffffffffffffffffffffffffff1673ffffffffffffffffffffffffffffffffffffffff168152602001908152602001600020604051611bde919061554a565b60405180910390a150505050505050505050565b60005a9050600c60009054906101000a900473ffffffffffffffffffffffffffffffffffffffff1673ffffffffffffffffffffffffffffffffffffffff166040516024016040516020818303038152906040527f66de84ec000000000000000000000000000000000000000000000000000000007bffffffffffffffffffffffffffffffffffffffffffffffffffffffff19166020820180517bffffffffffffffffffffffffffffffffffffffffffffffffffffffff8381831617835250505050604051611cc09190615287565b600060405180830381855af49150503d8060008114611cfb576040519150601f19603f3d011682016040523d82523d6000602084013e611d00565b606091505b505050611d0c816144fe565b50565b6060611d3982604051602001611d259190615356565b604051602081830303815290604052611d73565b9050919050565b600060056000838152602001908152602001600020600c01600e9054906101000a900460000b9050919050565b60065481565b606060006040518060400160405280601081526020017f303132333435363738396162636465660000000000000000000000000000000081525090506000600284510260020167ffffffffffffffff81118015611dcf57600080fd5b506040519080825280601f01601f191660200182016040528015611e025781602001600182028036833780820191505090505b5090507f300000000000000000000000000000000000000000000000000000000000000081600081518110611e3357fe5b60200101907effffffffffffffffffffffffffffffffffffffffffffffffffffffffffffff1916908160001a9053507f780000000000000000000000000000000000000000000000000000000000000081600181518110611e9057fe5b60200101907effffffffffffffffffffffffffffffffffffffffffffffffffffffffffffff1916908160001a90535060005b8451811015611fec57826004868381518110611eda57fe5b602001015160f81c60f81b7effffffffffffffffffffffffffffffffffffffffffffffffffffffffffffff1916901c60f81c60ff1681518110611f1957fe5b602001015160f81c60f81b826002830260020181518110611f3657fe5b60200101907effffffffffffffffffffffffffffffffffffffffffffffffffffffffffffff1916908160001a90535082600f60f81b868381518110611f7757fe5b602001015160f81c60f81b1660f81c60ff1681518110611f9357fe5b602001015160f81c60f81b826002830260030181518110611fb057fe5b60200101907effffffffffffffffffffffffffffffffffffffffffffffffffffffffffffff1916908160001a9053508080600101915050611ec2565b508092505050919050565b82620f424081101561203e576040517f08c379a00000000000000000000000000000000000000000000000000000000081526004016120359061560c565b60405180910390fd5b80600b60009054906101000a900473ffffffffffffffffffffffffffffffffffffffff1673ffffffffffffffffffffffffffffffffffffffff1663dd62ed3e33306040518363ffffffff1660e01b815260040161209c9291906153a7565b60206040518083038186803b1580156120b457600080fd5b505afa1580156120c8573d6000803e3d6000fd5b505050506040513d601f19601f820116820180604052508101906120ec9190614af2565b101561212d576040517f08c379a0000000000000000000000000000000000000000000000000000000008152600401612124906155ac565b60405180910390fd5b80600b60009054906101000a900473ffffffffffffffffffffffffffffffffffffffff1673ffffffffffffffffffffffffffffffffffffffff166370a08231336040518263ffffffff1660e01b8152600401612189919061538c565b60206040518083038186803b1580156121a157600080fd5b505afa1580156121b5573d6000803e3d6000fd5b505050506040513d601f19601f820116820180604052508101906121d99190614af2565b101561221a576040517f08c379a0000000000000000000000000000000000000000000000000000000008152600401612211906155cc565b60405180910390fd5b600560006006548152602001908152602001600020600c0160049054906101000a900463ffffffff16620151800163ffffffff16421061228f576040517f08c379a00000000000000000000000000000000000000000000000000000000081526004016122869061558c565b60405180910390fd5b6000600260003373ffffffffffffffffffffffffffffffffffffffff1673ffffffffffffffffffffffffffffffffffffffff16815260200190815260200160002080546001816001161561010002031660029004905011612325576040517f08c379a000000000000000000000000000000000000000000000000000000000815260040161231c906155ec565b60405180910390fd5b60005a9050600c60009054906101000a900473ffffffffffffffffffffffffffffffffffffffff1673ffffffffffffffffffffffffffffffffffffffff1685858560405160240161237893929190615647565b6040516020818303038152906040527f80aaddee000000000000000000000000000000000000000000000000000000007bffffffffffffffffffffffffffffffffffffffffffffffffffffffff19166020820180517bffffffffffffffffffffffffffffffffffffffffffffffffffffffff83818316178352505050506040516124029190615287565b600060405180830381855af49150503d806000811461243d576040519150601f19603f3d011682016040523d82523d6000602084013e612442565b606091505b50505060016006541415612540576305f5e100851061253f57600e60009054906101000a900473ffffffffffffffffffffffffffffffffffffffff1673ffffffffffffffffffffffffffffffffffffffff166343a347cf33600560006001815260200190815260200160002060010160003373ffffffffffffffffffffffffffffffffffffffff1673ffffffffffffffffffffffffffffffffffffffff168152602001908152602001600020546040518363ffffffff1660e01b815260040161250c9291906153d0565b600060405180830381600087803b15801561252657600080fd5b505af115801561253a573d6000803e3d6000fd5b505050505b5b612549816144fe565b5050505050565b6000808214156125b857600460008573ffffffffffffffffffffffffffffffffffffffff1673ffffffffffffffffffffffffffffffffffffffff1681526020019081526020016000206004016000848152602001908152602001600020600001549050612b41565b600182141561261f57600460008573ffffffffffffffffffffffffffffffffffffffff1673ffffffffffffffffffffffffffffffffffffffff1681526020019081526020016000206004016000848152602001908152602001600020600101549050612b41565b600282141561268657600460008573ffffffffffffffffffffffffffffffffffffffff1673ffffffffffffffffffffffffffffffffffffffff1681526020019081526020016000206004016000848152602001908152602001600020600201549050612b41565b60038214156126ed57600460008573ffffffffffffffffffffffffffffffffffffffff1673ffffffffffffffffffffffffffffffffffffffff1681526020019081526020016000206004016000848152602001908152602001600020600301549050612b41565b600482141561275457600460008573ffffffffffffffffffffffffffffffffffffffff1673ffffffffffffffffffffffffffffffffffffffff1681526020019081526020016000206004016000848152602001908152602001600020600401549050612b41565b60058214156127bb57600460008573ffffffffffffffffffffffffffffffffffffffff1673ffffffffffffffffffffffffffffffffffffffff1681526020019081526020016000206004016000848152602001908152602001600020600501549050612b41565b600682141561282257600460008573ffffffffffffffffffffffffffffffffffffffff1673ffffffffffffffffffffffffffffffffffffffff1681526020019081526020016000206004016000848152602001908152602001600020600601549050612b41565b600782141561288957600460008573ffffffffffffffffffffffffffffffffffffffff1673ffffffffffffffffffffffffffffffffffffffff1681526020019081526020016000206004016000848152602001908152602001600020600701549050612b41565b60088214156128f057600460008573ffffffffffffffffffffffffffffffffffffffff1673ffffffffffffffffffffffffffffffffffffffff1681526020019081526020016000206004016000848152602001908152602001600020600801549050612b41565b600982141561295757600460008573ffffffffffffffffffffffffffffffffffffffff1673ffffffffffffffffffffffffffffffffffffffff1681526020019081526020016000206004016000848152602001908152602001600020600901549050612b41565b600a8214156129be57600460008573ffffffffffffffffffffffffffffffffffffffff1673ffffffffffffffffffffffffffffffffffffffff1681526020019081526020016000206004016000848152602001908152602001600020600a01549050612b41565b600b821415612a1157600460008573ffffffffffffffffffffffffffffffffffffffff1673ffffffffffffffffffffffffffffffffffffffff168152602001908152602001600020600201549050612b41565b600c821415612a6457600460008573ffffffffffffffffffffffffffffffffffffffff1673ffffffffffffffffffffffffffffffffffffffff168152602001908152602001600020600301549050612b41565b600d821415612acb57600460008573ffffffffffffffffffffffffffffffffffffffff1673ffffffffffffffffffffffffffffffffffffffff1681526020019081526020016000206004016000848152602001908152602001600020600b01549050612b41565b600e821415612b3c57600460008573ffffffffffffffffffffffffffffffffffffffff1673ffffffffffffffffffffffffffffffffffffffff16815260200190815260200160002060000160009054906101000a900460ff16612b2f576000612b32565b60015b60ff169050612b41565b600090505b9392505050565b633b9aca0081565b6000806000905060008390505b8051821015612cd55760006007828481518110612b7657fe5b602001015160f81c60f81b7effffffffffffffffffffffffffffffffffffffffffffffffffffffffffffff1916901c60f81c60ff161415612bbc57600182019150612cc8565b60066005828481518110612bcc57fe5b602001015160f81c60f81b7effffffffffffffffffffffffffffffffffffffffffffffffffffffffffffff1916901c60f81c60ff161415612c1257600282019150612cc7565b600e6004828481518110612c2257fe5b602001015160f81c60f81b7effffffffffffffffffffffffffffffffffffffffffffffffffffffffffffff1916901c60f81c60ff161415612c6857600382019150612cc6565b601e6003828481518110612c7857fe5b602001015160f81c60f81b7effffffffffffffffffffffffffffffffffffffffffffffffffffffffffffff1916901c60f81c60ff161415612cbe57600482019150612cc5565b6001820191505b5b5b5b8280600101935050612b5d565b5050919050565b60075481565b60008054906101000a900473ffffffffffffffffffffffffffffffffffffffff1673ffffffffffffffffffffffffffffffffffffffff163373ffffffffffffffffffffffffffffffffffffffff1614612d3a57600080fd5b600b60009054906101000a900473ffffffffffffffffffffffffffffffffffffffff1673ffffffffffffffffffffffffffffffffffffffff1663a9059cbb600160009054906101000a900473ffffffffffffffffffffffffffffffffffffffff166009546040518363ffffffff1660e01b8152600401612dbb9291906153f9565b602060405180830381600087803b158015612dd557600080fd5b505af1158015612de9573d6000803e3d6000fd5b505050506040513d601f19601f82011682018060405250810190612e0d9190614959565b506000600981905550565b82620f4240811015612e5f576040517f08c379a0000000000000000000000000000000000000000000000000000000008152600401612e569061560c565b60405180910390fd5b80600b60009054906101000a900473ffffffffffffffffffffffffffffffffffffffff1673ffffffffffffffffffffffffffffffffffffffff1663dd62ed3e33306040518363ffffffff1660e01b8152600401612ebd9291906153a7565b60206040518083038186803b158015612ed557600080fd5b505afa158015612ee9573d6000803e3d6000fd5b505050506040513d601f19601f82011682018060405250810190612f0d9190614af2565b1015612f4e576040517f08c379a0000000000000000000000000000000000000000000000000000000008152600401612f45906155ac565b60405180910390fd5b80600b60009054906101000a900473ffffffffffffffffffffffffffffffffffffffff1673ffffffffffffffffffffffffffffffffffffffff166370a08231336040518263ffffffff1660e01b8152600401612faa919061538c565b60206040518083038186803b158015612fc257600080fd5b505afa158015612fd6573d6000803e3d6000fd5b505050506040513d601f19601f82011682018060405250810190612ffa9190614af2565b101561303b576040517f08c379a0000000000000000000000000000000000000000000000000000000008152600401613032906155cc565b60405180910390fd5b600560006006548152602001908152602001600020600c0160049054906101000a900463ffffffff16620151800163ffffffff1642116130b0576040517f08c379a00000000000000000000000000000000000000000000000000000000081526004016130a79061556c565b60405180910390fd5b6000600260003373ffffffffffffffffffffffffffffffffffffffff1673ffffffffffffffffffffffffffffffffffffffff16815260200190815260200160002080546001816001161561010002031660029004905011613146576040517f08c379a000000000000000000000000000000000000000000000000000000000815260040161313d906155ec565b60405180910390fd5b60005a9050600c60009054906101000a900473ffffffffffffffffffffffffffffffffffffffff1673ffffffffffffffffffffffffffffffffffffffff1685858560405160240161319993929190615647565b6040516020818303038152906040527fb7dc3b18000000000000000000000000000000000000000000000000000000007bffffffffffffffffffffffffffffffffffffffffffffffffffffffff19166020820180517bffffffffffffffffffffffffffffffffffffffffffffffffffffffff83818316178352505050506040516132239190615287565b600060405180830381855af49150503d806000811461325e576040519150601f19603f3d011682016040523d82523d6000602084013e613263565b606091505b50505060016006541415613361576305f5e100851061336057600e60009054906101000a900473ffffffffffffffffffffffffffffffffffffffff1673ffffffffffffffffffffffffffffffffffffffff166340c10f1933600560006001815260200190815260200160002060010160003373ffffffffffffffffffffffffffffffffffffffff1673ffffffffffffffffffffffffffffffffffffffff168152602001908152602001600020546040518363ffffffff1660e01b815260040161332d9291906153d0565b600060405180830381600087803b15801561334757600080fd5b505af115801561335b573d6000803e3d6000fd5b505050505b5b61336a816144fe565b5050505050565b606080606080606080600060056000600654815260200190815260200160002060060160009054906101000a900473ffffffffffffffffffffffffffffffffffffffff169050600060056000600654815260200190815260200160002060070160009054906101000a900473ffffffffffffffffffffffffffffffffffffffff169050600060056000600654815260200190815260200160002060080160009054906101000a900473ffffffffffffffffffffffffffffffffffffffff1690506060600460008c73ffffffffffffffffffffffffffffffffffffffff1673ffffffffffffffffffffffffffffffffffffffff16815260200190815260200160002060000160009054906101000a900460ff161561356757600260008c73ffffffffffffffffffffffffffffffffffffffff1673ffffffffffffffffffffffffffffffffffffffff1681526020019081526020016000208054600181600116156101000203166002900480601f01602080910402602001604051908101604052809291908181526020018280546001816001161561010002031660029004801561355b5780601f106135305761010080835404028352916020019161355b565b820191906000526020600020905b81548152906001019060200180831161353e57829003601f168201915b50505050509050613645565b600460008c73ffffffffffffffffffffffffffffffffffffffff1673ffffffffffffffffffffffffffffffffffffffff1681526020019081526020016000206001018054600181600116156101000203166002900480601f01602080910402602001604051908101604052809291908181526020018280546001816001161561010002031660029004801561363d5780601f106136125761010080835404028352916020019161363d565b820191906000526020600020905b81548152906001019060200180831161362057829003601f168201915b505050505090505b600260008c73ffffffffffffffffffffffffffffffffffffffff1673ffffffffffffffffffffffffffffffffffffffff16815260200190815260200160002081600a600260008873ffffffffffffffffffffffffffffffffffffffff1673ffffffffffffffffffffffffffffffffffffffff168152602001908152602001600020600260008873ffffffffffffffffffffffffffffffffffffffff1673ffffffffffffffffffffffffffffffffffffffff168152602001908152602001600020600260008873ffffffffffffffffffffffffffffffffffffffff1673ffffffffffffffffffffffffffffffffffffffff168152602001908152602001600020858054600181600116156101000203166002900480601f0160208091040260200160405190810160405280929190818152602001828054600181600116156101000203166002900480156137d95780601f106137ae576101008083540402835291602001916137d9565b820191906000526020600020905b8154815290600101906020018083116137bc57829003601f168201915b50505050509550838054600181600116156101000203166002900480601f0160208091040260200160405190810160405280929190818152602001828054600181600116156101000203166002900480156138755780601f1061384a57610100808354040283529160200191613875565b820191906000526020600020905b81548152906001019060200180831161385857829003601f168201915b50505050509350828054600181600116156101000203166002900480601f0160208091040260200160405190810160405280929190818152602001828054600181600116156101000203166002900480156139115780601f106138e657610100808354040283529160200191613911565b820191906000526020600020905b8154815290600101906020018083116138f457829003601f168201915b50505050509250818054600181600116156101000203166002900480601f0160208091040260200160405190810160405280929190818152602001828054600181600116156101000203166002900480156139ad5780601f10613982576101008083540402835291602001916139ad565b820191906000526020600020905b81548152906001019060200180831161399057829003601f168201915b50505050509150808054600181600116156101000203166002900480601f016020809104026020016040519081016040528092919081815260200182805460018160011615610100020316600290048015613a495780601f10613a1e57610100808354040283529160200191613a49565b820191906000526020600020905b815481529060010190602001808311613a2c57829003601f168201915b505050505090509950995099509950995099505050505091939550919395565b613a7385856107fc565b613a7e8383836118e6565b5050505050565b600080821415613ac35760056000848152602001908152602001600020600c0160009054906101000a900463ffffffff1663ffffffff169050613c65565b6001821415613afc5760056000848152602001908152602001600020600c01600c9054906101000a900461ffff1661ffff169050613c65565b6002821415613b395760056000848152602001908152602001600020600c0160049054906101000a900463ffffffff1663ffffffff169050613c65565b6003821415613b605760056000848152602001908152602001600020600201549050613c65565b6004821415613b875760056000848152602001908152602001600020600301549050613c65565b6005821415613bae5760056000848152602001908152602001600020600401549050613c65565b6006821415613beb5760056000848152602001908152602001600020600c0160089054906101000a900463ffffffff1663ffffffff169050613c65565b6007821415613c125760056000848152602001908152602001600020600501549050613c65565b6008821415613c395760056000848152602001908152602001600020600a01549050613c65565b6009821415613c605760056000848152602001908152602001600020600b01549050613c65565b600090505b92915050565b60095481565b60026020528060005260406000206000915090508054600181600116156101000203166002900480601f016020809104026020016040519081016040528092919081815260200182805460018160011615610100020316600290048015613d195780601f10613cee57610100808354040283529160200191613d19565b820191906000526020600020905b815481529060010190602001808311613cfc57829003601f168201915b505050505081565b600560006006548152602001908152602001600020600c0160049054906101000a900463ffffffff16620151800163ffffffff164211613d96576040517f08c379a0000000000000000000000000000000000000000000000000000000008152600401613d8d9061556c565b60405180910390fd5b6000600260003373ffffffffffffffffffffffffffffffffffffffff1673ffffffffffffffffffffffffffffffffffffffff16815260200190815260200160002080546001816001161561010002031660029004905011613e2c576040517f08c379a0000000000000000000000000000000000000000000000000000000008152600401613e23906155ec565b60405180910390fd5b60005a9050600c60009054906101000a900473ffffffffffffffffffffffffffffffffffffffff1673ffffffffffffffffffffffffffffffffffffffff166040516024016040516020818303038152906040527fe8b5e51f000000000000000000000000000000000000000000000000000000007bffffffffffffffffffffffffffffffffffffffffffffffffffffffff19166020820180517bffffffffffffffffffffffffffffffffffffffffffffffffffffffff8381831617835250505050604051613efa9190615287565b600060405180830381855af49150503d8060008114613f35576040519150601f19603f3d011682016040523d82523d6000602084013e613f3a565b606091505b505050613f46816144fe565b50565b60008054906101000a900473ffffffffffffffffffffffffffffffffffffffff1673ffffffffffffffffffffffffffffffffffffffff163373ffffffffffffffffffffffffffffffffffffffff1614613fa157600080fd5b8181600a9190613fb2929190614623565b505050565b600080600080600080600c60009054906101000a900473ffffffffffffffffffffffffffffffffffffffff1673ffffffffffffffffffffffffffffffffffffffff16888860405160240161400c9291906153f9565b6040516020818303038152906040527ff3f54490000000000000000000000000000000000000000000000000000000007bffffffffffffffffffffffffffffffffffffffffffffffffffffffff19166020820180517bffffffffffffffffffffffffffffffffffffffffffffffffffffffff83818316178352505050506040516140969190615287565b600060405180830381855af49150503d80600081146140d1576040519150601f19603f3d011682016040523d82523d6000602084013e6140d6565b606091505b50915050808060200190518101906140ee9190614c27565b95509550955095509550509295509295909350565b600080600080600080600080600080600460008d73ffffffffffffffffffffffffffffffffffffffff1673ffffffffffffffffffffffffffffffffffffffff16815260200190815260200160002060040160008c81526020019081526020016000206040518061018001604052908160008201548152602001600182015481526020016002820154815260200160038201548152602001600482015481526020016005820154815260200160068201548152602001600782015481526020016008820154815260200160098201548152602001600a8201548152602001600b82015481525050905080608001516141fa8d8d611778565b8260a001518360c001518460e00151856101000151866101200151876101400151886101600151995099509950995099509950995099509950509295985092959850929598565b600080600080600080600080600c60009054906101000a900473ffffffffffffffffffffffffffffffffffffffff1673ffffffffffffffffffffffffffffffffffffffff166040516024016040516020818303038152906040527ffa24f743000000000000000000000000000000000000000000000000000000007bffffffffffffffffffffffffffffffffffffffffffffffffffffffff19166020820180517bffffffffffffffffffffffffffffffffffffffffffffffffffffffff83818316178352505050506040516143169190615287565b600060405180830381855af49150503d8060008114614351576040519150601f19603f3d011682016040523d82523d6000602084013e614356565b606091505b509150508080602001905181019061436e9190614c9e565b97509750975097509750975097505090919293949596565b6000805b82518110156144f35760008382815181106143a157fe5b602001015160f81c60f81b9050603060f81b817effffffffffffffffffffffffffffffffffffffffffffffffffffffffffffff19161015801561440a5750603960f81b817effffffffffffffffffffffffffffffffffffffffffffffffffffffffffffff191611155b1580156144705750604160f81b817effffffffffffffffffffffffffffffffffffffffffffffffffffffffffffff19161015801561446e5750605a60f81b817effffffffffffffffffffffffffffffffffffffffffffffffffffffffffffff191611155b155b80156144d55750606160f81b817effffffffffffffffffffffffffffffffffffffffffffffffffffffffffffff1916101580156144d35750607a60f81b817effffffffffffffffffffffffffffffffffffffffffffffffffffffffffffff191611155b155b156144e5576000925050506144f9565b50808060010191505061438a565b50600190505b919050565b6000600d60009054906101000a900473ffffffffffffffffffffffffffffffffffffffff1673ffffffffffffffffffffffffffffffffffffffff1663feaf968c6040518163ffffffff1660e01b815260040160a06040518083038186803b15801561456857600080fd5b505afa15801561457c573d6000803e3d6000fd5b505050506040513d601f19601f820116820180604052508101906145a09190614d3c565b5050509150506305f5e100813a5a85030202816145b957fe5b04600460003373ffffffffffffffffffffffffffffffffffffffff1673ffffffffffffffffffffffffffffffffffffffff16815260200190815260200160002060040160006006548152602001908152602001600020600b01600082825401925050819055505050565b828054600181600116156101000203166002900490600052602060002090601f01602090048101928261465957600085556146a0565b82601f1061467257803560ff19168380011785556146a0565b828001600101855582156146a0579182015b8281111561469f578235825591602001919060010190614684565b5b5090506146ad91906146b1565b5090565b5b808211156146ca5760008160009055506001016146b2565b5090565b60006146e16146dc846157f9565b6157c8565b9050828152602081018484840111156146f957600080fd5b61470484828561596d565b509392505050565b600061471f61471a84615829565b6157c8565b90508281526020810184848401111561473757600080fd5b61474284828561596d565b509392505050565b60008135905061475981615a07565b92915050565b60008151905061476e81615a1e565b92915050565b60008135905061478381615a35565b92915050565b600082601f83011261479a57600080fd5b81356147aa8482602086016146ce565b91505092915050565b6000815190506147c281615a4c565b92915050565b6000813590506147d781615a63565b92915050565b60008083601f8401126147ef57600080fd5b8235905067ffffffffffffffff81111561480857600080fd5b60208301915083600182028301111561482057600080fd5b9250929050565b600082601f83011261483857600080fd5b813561484884826020860161470c565b91505092915050565b60008135905061486081615a7a565b92915050565b60008151905061487581615a7a565b92915050565b60008135905061488a81615a91565b92915050565b60008151905061489f81615aa8565b92915050565b6000602082840312156148b757600080fd5b60006148c58482850161474a565b91505092915050565b600080604083850312156148e157600080fd5b60006148ef8582860161474a565b925050602061490085828601614851565b9150509250929050565b60008060006060848603121561491f57600080fd5b600061492d8682870161474a565b935050602061493e86828701614851565b925050604061494f86828701614851565b9150509250925092565b60006020828403121561496b57600080fd5b60006149798482850161475f565b91505092915050565b60006020828403121561499457600080fd5b600082013567ffffffffffffffff8111156149ae57600080fd5b6149ba84828501614789565b91505092915050565b600080602083850312156149d657600080fd5b600083013567ffffffffffffffff8111156149f057600080fd5b6149fc858286016147dd565b92509250509250929050565b600080600080600060808688031215614a2057600080fd5b600086013567ffffffffffffffff811115614a3a57600080fd5b614a46888289016147dd565b95509550506020614a598882890161487b565b9350506040614a6a88828901614774565b9250506060614a7b88828901614774565b9150509295509295909350565b600060208284031215614a9a57600080fd5b600082013567ffffffffffffffff811115614ab457600080fd5b614ac084828501614827565b91505092915050565b600060208284031215614adb57600080fd5b6000614ae984828501614851565b91505092915050565b600060208284031215614b0457600080fd5b6000614b1284828501614866565b91505092915050565b60008060408385031215614b2e57600080fd5b6000614b3c85828601614851565b9250506020614b4d8582860161474a565b9150509250929050565b60008060408385031215614b6a57600080fd5b6000614b7885828601614851565b9250506020614b89858286016147c8565b9150509250929050565b600080600060408486031215614ba857600080fd5b6000614bb686828701614851565b935050602084013567ffffffffffffffff811115614bd357600080fd5b614bdf868287016147dd565b92509250509250925092565b60008060408385031215614bfe57600080fd5b6000614c0c85828601614851565b9250506020614c1d85828601614851565b9150509250929050565b600080600080600060a08688031215614c3f57600080fd5b6000614c4d88828901614866565b9550506020614c5e88828901614866565b9450506040614c6f88828901614866565b9350506060614c8088828901614866565b9250506080614c9188828901614866565b9150509295509295909350565b600080600080600080600060e0888a031215614cb957600080fd5b6000614cc78a828b01614866565b9750506020614cd88a828b01614866565b9650506040614ce98a828b01614866565b9550506060614cfa8a828b01614866565b9450506080614d0b8a828b01614866565b93505060a0614d1c8a828b01614866565b92505060c0614d2d8a828b01614866565b91505092959891949750929550565b600080600080600060a08688031215614d5457600080fd5b6000614d6288828901614890565b9550506020614d73888289016147b3565b9450506040614d8488828901614866565b9350506060614d9588828901614866565b9250506080614da688828901614890565b9150509295509295909350565b600080600060608486031215614dc857600080fd5b6000614dd68682870161487b565b9350506020614de786828701614774565b9250506040614df886828701614774565b9150509250925092565b614e0b81615937565b82525050565b614e1a816158ab565b82525050565b614e31614e2c826158ab565b6159af565b82525050565b614e40816158bd565b82525050565b614e4f816158c9565b82525050565b614e66614e61826158c9565b6159c1565b82525050565b6000614e778261586e565b614e818185615884565b9350614e9181856020860161597c565b80840191505092915050565b614ea6816158dd565b82525050565b6000614eb8838561588f565b9350614ec583858461596d565b614ece836159e9565b840190509392505050565b6000614ee583856158a0565b9350614ef283858461596d565b82840190509392505050565b6000614f0982615879565b614f13818561588f565b9350614f2381856020860161597c565b614f2c816159e9565b840191505092915050565b6000614f4282615879565b614f4c81856158a0565b9350614f5c81856020860161597c565b80840191505092915050565b600081546001811660008114614f855760018114614fab57614fef565b607f6002830416614f96818761588f565b955060ff198316865260208601935050614fef565b60028204614fb9818761588f565b9550614fc485615859565b60005b82811015614fe657815481890152600182019150602081019050614fc7565b80880195505050505b505092915050565b6000615004600e8361588f565b91507f7072656d61726b6574206f70656e0000000000000000000000000000000000006000830152602082019050919050565b600061504460108361588f565b91507f7072656d61726b657420636c6f736564000000000000000000000000000000006000830152602082019050919050565b60006150846015836158a0565b91507f4772616e742073746f6e6b62726f6b657220746f2000000000000000000000006000830152601582019050919050565b60006150c4600c8361588f565b91507f6e6f20616c6c6f77616e636500000000000000000000000000000000000000006000830152602082019050919050565b600061510460088361588f565b91507f6e6f2066756e64730000000000000000000000000000000000000000000000006000830152602082019050919050565b600061514460078361588f565b91507f6e6f206e616d65000000000000000000000000000000000000000000000000006000830152602082019050919050565b60006151846016836158a0565b91507f5265636f766572656420616464726573732077617320000000000000000000006000830152601682019050919050565b60006151c4600a836158a0565b91507f206f6e20636861696e20000000000000000000000000000000000000000000006000830152600a82019050919050565b600061520460078361588f565b91507f6d696e20627579000000000000000000000000000000000000000000000000006000830152602082019050919050565b6152408161590a565b82525050565b6152576152528261590a565b6159dd565b82525050565b61526681615914565b82525050565b60006152788284614e20565b60148201915081905092915050565b60006152938284614e6c565b915081905092915050565b60006152aa8285614e6c565b91506152b68284614e55565b6020820191508190509392505050565b60006152d3828486614ed9565b91508190509392505050565b60006152eb8284614f37565b915081905092915050565b600061530182615077565b915061530d8285614f37565b9150615318826151b7565b91506153248284614f37565b91508190509392505050565b600061533b82615177565b91506153478284614e20565b60148201915081905092915050565b60006153628284615246565b60208201915081905092915050565b60006020820190506153866000830184614e11565b92915050565b60006020820190506153a16000830184614e02565b92915050565b60006040820190506153bc6000830185614e02565b6153c96020830184614e11565b9392505050565b60006040820190506153e56000830185614e02565b6153f26020830184615237565b9392505050565b600060408201905061540e6000830185614e11565b61541b6020830184615237565b9392505050565b60006020820190506154376000830184614e37565b92915050565b60006080820190506154526000830187614e46565b61545f602083018661525d565b61546c6040830185614e46565b6154796060830184614e46565b95945050505050565b60006020820190506154976000830184614e9d565b92915050565b600060208201905081810360008301526154b78184614efe565b905092915050565b600060c08201905081810360008301526154d98189614efe565b905081810360208301526154ed8188614efe565b905081810360408301526155018187614efe565b905081810360608301526155158186614efe565b905081810360808301526155298185614efe565b905081810360a083015261553d8184614efe565b9050979650505050505050565b600060208201905081810360008301526155648184614f68565b905092915050565b6000602082019050818103600083015261558581614ff7565b9050919050565b600060208201905081810360008301526155a581615037565b9050919050565b600060208201905081810360008301526155c5816150b7565b9050919050565b600060208201905081810360008301526155e5816150f7565b9050919050565b6000602082019050818103600083015261560581615137565b9050919050565b60006020820190508181036000830152615625816151f7565b9050919050565b60006020820190506156416000830184615237565b92915050565b600060408201905061565c6000830186615237565b818103602083015261566f818486614eac565b9050949350505050565b600060a08201905061568e6000830188615237565b61569b6020830187615237565b6156a86040830186615237565b6156b56060830185615237565b6156c26080830184615237565b9695505050505050565b600060e0820190506156e1600083018a615237565b6156ee6020830189615237565b6156fb6040830188615237565b6157086060830187615237565b6157156080830186615237565b61572260a0830185615237565b61572f60c0830184615237565b98975050505050505050565b600061012082019050615751600083018c615237565b61575e602083018b615237565b61576b604083018a615237565b6157786060830189615237565b6157856080830188615237565b61579260a0830187615237565b61579f60c0830186615237565b6157ac60e0830185615237565b6157ba610100830184615237565b9a9950505050505050505050565b6000604051905081810181811067ffffffffffffffff821117156157ef576157ee6159e7565b5b8060405250919050565b600067ffffffffffffffff821115615814576158136159e7565b5b601f19601f8301169050602081019050919050565b600067ffffffffffffffff821115615844576158436159e7565b5b601f19601f8301169050602081019050919050565b60008190508160005260206000209050919050565b600081519050919050565b600081519050919050565b600081905092915050565b600082825260208201905092915050565b600081905092915050565b60006158b6826158ea565b9050919050565b60008115159050919050565b6000819050919050565b6000819050919050565b60008160000b9050919050565b600073ffffffffffffffffffffffffffffffffffffffff82169050919050565b6000819050919050565b600060ff82169050919050565b600069ffffffffffffffffffff82169050919050565b600061594282615949565b9050919050565b60006159548261595b565b9050919050565b6000615966826158ea565b9050919050565b82818337600083830152505050565b60005b8381101561599a57808201518184015260208101905061597f565b838111156159a9576000848401525b50505050565b60006159ba826159cb565b9050919050565b6000819050919050565b60006159d6826159fa565b9050919050565b6000819050919050565bfe5b6000601f19601f8301169050919050565b60008160601b9050919050565b615a10816158ab565b8114615a1b57600080fd5b50565b615a27816158bd565b8114615a3257600080fd5b50565b615a3e816158c9565b8114615a4957600080fd5b50565b615a55816158d3565b8114615a6057600080fd5b50565b615a6c816158dd565b8114615a7757600080fd5b50565b615a838161590a565b8114615a8e57600080fd5b50565b615a9a81615914565b8114615aa557600080fd5b50565b615ab181615921565b8114615abc57600080fd5b5056fea26469706673582212206a084182b832e4000426af26b14f0e2c89684ac3fe416f2d4205200b0197ad8564736f6c63430007060033",
  "immutableReferences": {},
  "source": "pragma solidity 0.7.6;\npragma experimental ABIEncoderV2;\n\nimport \"@chainlink/contracts/src/v0.6/interfaces/AggregatorV3Interface.sol\";\n\nimport \"./StonkNFT.sol\";\nimport \"./TokenInterface.sol\";\nimport \"./EthStonksLibrary.sol\";\n\ncontract EthStonks {\n    using SafeMath for uint;\n\n    modifier onlyAdmin() {\n        require(msg.sender == admin);\n        _;\n    }\n\n    modifier preMarketOpen() {\n        require(block.timestamp < PREMARKET_LENGTH + round[r].seedTime, \"premarket closed\");\n        _;\n    }\n\n    modifier preMarketClosed() {\n        require(block.timestamp > PREMARKET_LENGTH + round[r].seedTime, \"premarket open\");\n        _;\n    }\n\n    modifier checkDeposit(uint amount) {\n        require(amount >= MIN_BUY, \"min buy\");\n        require(token.allowance(msg.sender, address(this)) >= amount, \"no allowance\");\n        require(token.balanceOf(msg.sender) >= amount, \"no funds\");\n        _;\n    }\n\n    modifier hasName() {\n        require(bytes(addressToName[msg.sender]).length > 0, \"no name\");\n        _;\n    }\n\n    modifier validName(string memory name) {\n        uint length = nameLength(name);\n        require(length <= 12);\n        require(length >= 3);\n        require(checkCharacters(bytes(name)));\n        _;\n    }\n\n    modifier updatePlayerIndex() {\n        Round storage _round = round[r];\n        if (_round.addrToId[msg.sender] == 0) {\n            _round.idToAddr[_round.playerIndex++] = msg.sender;\n            _round.addrToId[msg.sender] = _round.playerIndex;\n        }\n        _;\n    }\n\n    modifier recordGas() {\n        uint gas = gasleft();\n        _;\n        _recordGas(gas);\n    }\n\n    address private admin;\n    address private bank;\n\n    uint constant private PSN = 10000;\n    uint constant private PSNH = 5000;\n    uint constant private INVEST_RATIO = 86400;\n    uint constant private MARKET_RESET = 864000000000;\n    uint constant private CB_ONE = 1e16;\n    uint constant private CB_TWO = 1e25;\n    uint constant private CB_THREE = 1e37;\n    uint32 constant private RND_MAX = 72 hours;\n    uint32 constant private PREMARKET_LENGTH = 24 hours;\n    uint8 constant private FEE = 25;\n\n    uint constant public MIN_BUY = 1e6;\n    uint constant public BROKER_REQ = 1000e6;\n\n    uint constant public MIN_NFT_BUY = 100e6;\n\n    struct Round {\n        mapping(uint => address) idToAddr;\n        mapping(address => uint) addrToId;\n        uint seedBalance;\n        uint preMarketSpent;\n        uint preMarketDivs;\n        uint stonkMarket;\n        address spender;\n        address prod;\n        address chadBroker;\n        mapping(int8 => address) lastBuys;\n        uint bailoutFund;\n        uint nextCb;\n        uint32 playerIndex;\n        uint32 seedTime;\n        uint32 end;\n        uint16 index;\n        int8 lastBuyIndex;\n    }\n\n    struct PlayerRound {\n        // management\n        uint preMarketSpent;\n        uint lastAction;\n        uint companies;\n        uint oldRateStonks;\n        // record keeping\n        uint spent;\n        uint stonkDivs;\n        uint cashbackDivs;\n        uint brokerDivs;\n        uint brokeredTrades;\n        uint bailoutDivs;\n        uint chadBrokerDivs;\n        uint gasSpent;\n    }\n\n    struct Player {\n        bool isBroker;\n        string lastBroker;\n        uint preMarketDivsWithdrawn;\n        uint availableDivs;\n        mapping(uint => PlayerRound) playerRound;\n    }\n\n    struct BailoutEvent {\n        string prod;\n        string spender;\n        string b1;\n        string b2;\n        string b3;\n        string b4;\n        string b5;\n        uint round;\n        uint cb;\n        uint amount;\n    }\n\n    mapping(address => string) public addressToName;\n    mapping(string => address) public nameToAddress;\n\n    mapping(address => Player) internal player;\n    mapping(uint => Round) internal round;\n    uint public r = 1;\n\n    uint public pmDivBal;       // needs to be separate because it is dynamic for users\n    uint public divBal;         // includes bailouts, cashback, broker divs and stonk sales\n    uint public devBal;         // dev fee balance \n\n    string private featuredBroker = 'MrF';\n\n    TokenInterface private token;\n\n    EthStonksLibrary private lib;\n\n    AggregatorV3Interface internal priceFeed;\n\n    StonksGuy internal nft;\n\n    event LogPreMarketBuy(string name, string broker, uint value, bool isBroker, bool validBroker);\n    event LogBuy(string name, string broker, uint value, bool isBroker, bool validBroker);\n    event LogInvest(string name, uint value);\n    event LogSell(string name, uint value);\n    event LogWithdraw(string name, uint value);\n    event LogHistory(uint index, uint fund, uint market, uint timestamp);\n    event LogBailouts(BailoutEvent e);\n\n    event NewPlayer(address addr, string name);\n    event NewBroker(string name);\n    event NewChad(string name, uint divs, uint trades);\n\n    event NewRound(uint endBlock);\n\n    // CONSTRUCTOR / ADMIN\n\n    constructor(address _tokenAddress, address _bank, uint32 _open, EthStonksLibrary _lib, address _priceFeed, StonksGuy _nft)\n    updatePlayerIndex\n    {\n        nft = _nft;\n        lib = _lib;\n        token = TokenInterface(_tokenAddress);\n        bank = _bank;\n        admin = msg.sender;\n\n        addressToName[admin] = 'MrF';\n        nameToAddress['MrF'] = admin;\n        round[r].chadBroker = admin;\n\n        round[r].seedTime = _open - PREMARKET_LENGTH;\n        round[r].stonkMarket = MARKET_RESET;\n        round[r].end = _open + RND_MAX;\n        round[r].nextCb = CB_ONE;\n\n        // Main net ETH / USDT address = 0x5f4eC3Df9cbd43714FE2740f5E3616155c5b8419\n        priceFeed = AggregatorV3Interface(_priceFeed);\n    }\n\n    function setBank(address addr)\n    external\n    onlyAdmin\n    {\n        bank = addr;\n    }\n\n    function seedMarket(uint amount)\n    external\n    checkDeposit(amount)\n    onlyAdmin\n    preMarketOpen\n    {\n        address(lib).delegatecall(abi.encodeWithSignature('seedMarket(uint256)', amount));\n    }\n\n    function grantBroker(address addr)\n    external\n    onlyAdmin\n    {\n        player[addr].isBroker = true;\n        emit NewBroker(addressToName[addr]);\n    }\n\n    function claimBroker(uint8 _v, bytes32 _r, bytes32 _s)\n    public\n    {\n        // Prevent multiple calls\n        require(!player[msg.sender].isBroker);\n\n        // Confirm the hash was signed by admin\n        bytes memory prefix = \"\\x19Ethereum Signed Message:\\n32\";\n\n        // Confirm the hash contains the correct data\n        uint256 chainId;\n        assembly {\n            chainId := chainid()\n        }\n\n        string memory checkMessage = string(abi.encodePacked(\"Grant stonkbroker to \", toString(msg.sender), \" on chain \", toString(chainId)));\n        bytes32 checkHash = keccak256(abi.encodePacked(checkMessage));\n        bytes memory message = abi.encodePacked(prefix, checkHash);\n        bytes32 prefixedHash = keccak256(message);\n\n        address recoveredAddress = ecrecover(prefixedHash, _v, _r, _s);\n        require(recoveredAddress == admin, string(abi.encodePacked(\"Recovered address was \", recoveredAddress)));\n\n        // This is a legit request\n        player[msg.sender].isBroker = true;\n        emit NewBroker(addressToName[msg.sender]);\n    }\n\n    function featureBroker(string calldata _featuredBroker)\n    external\n    onlyAdmin\n    {\n        featuredBroker = _featuredBroker;\n    }\n\n    function devWithdraw()\n    external\n    onlyAdmin\n    {\n        token.transfer(address(bank), devBal);\n        devBal = 0;\n    }\n\n    // USER FUNCTIONS\n\n    function preMarketBuy(uint _amount, string calldata _broker)\n    external\n    checkDeposit(_amount)\n    preMarketOpen\n    hasName\n    recordGas\n    {\n        address(lib).delegatecall(abi.encodeWithSignature('preMarketBuy(uint256,string)', _amount, _broker));\n\n        if (r == 1) {\n            if (_amount >= MIN_NFT_BUY) {\n                nft.mintPreMarket(msg.sender, round[1].addrToId[msg.sender]);\n            }\n        }\n    }\n\n    function buy(uint _amount, string calldata _broker)\n    external\n    checkDeposit(_amount)\n    preMarketClosed\n    hasName\n    recordGas\n    {\n        address(lib).delegatecall(abi.encodeWithSignature('buy(uint256,string)', _amount, _broker));\n\n        if (r == 1) {\n            if (_amount >= MIN_NFT_BUY) {\n                nft.mint(msg.sender, round[1].addrToId[msg.sender]);\n            }\n        }\n    }\n\n    function invest()\n    external\n    preMarketClosed\n    hasName\n    recordGas\n    {\n        address(lib).delegatecall(abi.encodeWithSignature('invest()'));\n    }\n\n    function sell()\n    external\n    preMarketClosed\n    hasName\n    recordGas\n    {\n        address(lib).delegatecall(abi.encodeWithSignature('sell()'));\n    }\n\n    function withdrawBonus()\n    external\n    recordGas\n    {\n        address(lib).delegatecall(abi.encodeWithSignature('withdrawBonus()'));\n    }\n\n    // CURRENT ROUND VIEW FUNCTIONS\n\n    function stonkNames(address addr)\n    public view\n    returns (string memory _name, string memory _broker, string memory _featuredBroker, string memory _spender, string memory _producer, string memory _chad)\n    {\n        address spender = round[r].spender;\n        address prod = round[r].prod;\n        address chad = round[r].chadBroker;\n        string memory broker;\n\n        if (player[addr].isBroker) {\n            broker = addressToName[addr];\n        } else {\n            broker = player[addr].lastBroker;\n        }\n\n        return (\n        addressToName[addr],\n        broker,\n        featuredBroker,\n        addressToName[spender],\n        addressToName[prod],\n        addressToName[chad]\n        );\n    }\n\n    function stonkNumbers(address addr, uint buyAmount)\n    public\n    returns (uint companies, uint stonks, uint receiveBuy, uint receiveSell, uint dividends)\n    {\n        (, bytes memory result) = address(lib).delegatecall(abi.encodeWithSignature('stonkNumbers(address,uint256)', addr, buyAmount));\n        return abi.decode(result, (uint, uint, uint, uint, uint));\n    }\n\n    function gameData()\n    external\n    returns (uint rnd, uint index, uint open, uint end, uint fund, uint market, uint bailout)\n    {\n        (, bytes memory result) = address(lib).delegatecall(abi.encodeWithSignature('gameData()'));\n        return abi.decode(result, (uint, uint, uint, uint, uint, uint, uint));\n    }\n\n    function lastBuy(uint rnd, int8 index)\n    external view\n    returns (address)\n    {\n        return round[rnd].lastBuys[index];\n    }\n\n    // HISTORICAL VIEW FUNCTIONS\n\n    function userRoundStats(address addr, uint rnd)\n    public view\n    returns (uint, uint, uint, uint, uint, uint, uint, uint, uint)\n    {\n        PlayerRound memory _playerRound = player[addr].playerRound[rnd];\n        return\n        (\n        _playerRound.spent,\n        calculatePreMarketDivs(addr, rnd),\n        _playerRound.stonkDivs,\n        _playerRound.cashbackDivs,\n        _playerRound.brokerDivs,\n        _playerRound.brokeredTrades,\n        _playerRound.bailoutDivs,\n        _playerRound.chadBrokerDivs,\n        _playerRound.gasSpent\n        );\n    }\n\n    function calculatePreMarketDivs(address addr, uint rnd)\n    public view\n    returns (uint)\n    {\n        if (player[addr].playerRound[rnd].preMarketSpent == 0) {\n            return 0;\n        }\n\n        uint totalDivs = round[rnd].preMarketDivs;\n        uint totalSpent = round[rnd].preMarketSpent;\n        uint playerSpent = player[addr].playerRound[rnd].preMarketSpent;\n        uint playerDivs = (((playerSpent * 2 ** 64) / totalSpent) * totalDivs) / 2 ** 64;\n\n        return playerDivs;\n    }\n\n    function getAddrById(uint rnd, uint ind)\n    public view\n    returns (address)\n    {\n        return round[rnd].idToAddr[ind];\n    }\n\n    function getIdByAddr(uint rnd, address addr)\n    public view\n    returns (uint)\n    {\n        return round[rnd].addrToId[addr];\n    }\n\n    function getRoundIndex(uint rnd)\n    public view\n    returns (uint)\n    {\n        return round[rnd].index;\n    }\n\n    function getPlayerMetric(address addr, uint rnd, uint key)\n    public view\n    returns (uint)\n    {\n        if (key == 0) {\n            return player[addr].playerRound[rnd].preMarketSpent;\n        } else if (key == 1) {\n            return player[addr].playerRound[rnd].lastAction;\n        } else if (key == 2) {\n            return player[addr].playerRound[rnd].companies;\n        } else if (key == 3) {\n            return player[addr].playerRound[rnd].oldRateStonks;\n        } else if (key == 4) {\n            return player[addr].playerRound[rnd].spent;\n        } else if (key == 5) {\n            return player[addr].playerRound[rnd].stonkDivs;\n        } else if (key == 6) {\n            return player[addr].playerRound[rnd].cashbackDivs;\n        } else if (key == 7) {\n            return player[addr].playerRound[rnd].brokerDivs;\n        } else if (key == 8) {\n            return player[addr].playerRound[rnd].brokeredTrades;\n        } else if (key == 9) {\n            return player[addr].playerRound[rnd].bailoutDivs;\n        } else if (key == 10) {\n            return player[addr].playerRound[rnd].chadBrokerDivs;\n        } else if (key == 11) {\n            return player[addr].preMarketDivsWithdrawn;\n        } else if (key == 12) {\n            return player[addr].availableDivs;\n        } else if (key == 13) {\n            return player[addr].playerRound[rnd].gasSpent;\n        } else if (key == 14) {\n            return player[addr].isBroker ? 1 : 0;\n        } else {\n            return 0;\n        }\n    }\n\n    function leaderNumbers()\n    public\n    returns (uint, uint, uint, uint, uint, uint, uint)\n    {\n        (, bytes memory result) = address(lib).delegatecall(abi.encodeWithSignature('leaderNumbers()'));\n        return abi.decode(result, (uint, uint, uint, uint, uint, uint, uint));\n    }\n\n    function getRoundMetric(uint rnd, uint key)\n    public view\n    returns (uint)\n    {\n        if (key == 0) {\n            return round[rnd].playerIndex;\n        } else if (key == 1) {\n            return round[rnd].index;\n        } else if (key == 2) {\n            return round[rnd].seedTime;\n        } else if (key == 3) {\n            return round[rnd].seedBalance;\n        } else if (key == 4) {\n            return round[rnd].preMarketSpent;\n        } else if (key == 5) {\n            return round[rnd].preMarketDivs;\n        } else if (key == 6) {\n            return round[rnd].end;\n        } else if (key == 7) {\n            return round[rnd].stonkMarket;\n        } else if (key == 8) {\n            return round[rnd].bailoutFund;\n        } else if (key == 9) {\n            return round[rnd].nextCb;\n        } else {\n            return 0;\n        }\n    }\n\n    function getRoundLastBuyIndex(uint rnd)\n    external view\n    returns (int8)\n    {\n        return round[rnd].lastBuyIndex;\n    }\n\n    // INTERNAL FUNCTIONS (THAT MODIFY STATE)\n\n    function _recordGas(uint gas)\n    internal\n    {\n        (,int price,,,) = priceFeed.latestRoundData();\n        player[msg.sender].playerRound[r].gasSpent += ((gas - gasleft()) * tx.gasprice) * uint(price) / 1e8;\n    }\n\n    // INTERNAL FUNCTIONS (STATE NOT MODIFIED)\n\n    function calculatePreMarketOwned(address addr)\n    internal view\n    returns (uint)\n    {\n        if (player[addr].playerRound[r].preMarketSpent == 0) {\n            return 0;\n        }\n        uint stonks = calculateTrade(round[r].preMarketSpent, round[r].seedBalance, MARKET_RESET);\n        uint stonkFee = (stonks * FEE) / 100;\n        stonks -= stonkFee;\n        uint totalSpentBig = round[r].preMarketSpent * 100;\n        // inflate for precision\n        uint userPercent = stonks / (totalSpentBig / player[addr].playerRound[r].preMarketSpent);\n        return (userPercent * 100) / INVEST_RATIO;\n    }\n\n    function userRoundEarned(address addr, uint rnd)\n    internal view\n    returns (uint earned)\n    {\n        PlayerRound memory _playerRound = player[addr].playerRound[rnd];\n        earned += calculatePreMarketDivs(addr, rnd);\n        earned += _playerRound.stonkDivs;\n        earned += _playerRound.cashbackDivs;\n        earned += _playerRound.brokerDivs;\n        earned += _playerRound.bailoutDivs;\n        earned += _playerRound.chadBrokerDivs;\n    }\n\n    function marketFund()\n    internal view\n    returns (uint)\n    {\n        return token.balanceOf(address(this)) - (round[r].bailoutFund + divBal + pmDivBal + devBal);\n    }\n\n    function calculateTrade(uint rt, uint rs, uint bs)\n    internal pure\n    returns (uint)\n    {\n        return PSN.mul(bs) / PSNH.add(PSN.mul(rs).add(PSNH.mul(rt)) / rt);\n    }\n\n    function calculateSell(uint stonks)\n    internal view\n    returns (uint)\n    {\n        uint received = calculateTrade(stonks, round[r].stonkMarket, marketFund());\n        uint fee = (received * FEE) / 100;\n        return (received - fee);\n    }\n\n    function calculateBuy(uint spent)\n    internal view\n    returns (uint)\n    {\n        uint stonks = calculateTrade(spent, marketFund(), round[r].stonkMarket);\n        uint stonkFee = (stonks * FEE) / 100;\n        return (stonks - stonkFee);\n    }\n\n    // USERNAME FUNCTIONS\n\n    function checkName(string calldata name)\n    external view\n    returns (bool)\n    {\n        uint length = nameLength(name);\n        if (length < 3 || length > 12) {\n            return false;\n        }\n        if (checkCharacters(bytes(name))) {\n            return (nameToAddress[name] == address(0));\n        }\n        return false;\n    }\n\n    function registerName(string calldata name)\n    public\n    updatePlayerIndex\n    validName(name)\n    {\n        // Name is not yet registered\n        require(nameToAddress[name] == address(0));\n        // No name changes allowed\n        require(bytes(addressToName[msg.sender]).length == 0);\n\n        addressToName[msg.sender] = name;\n        nameToAddress[name] = msg.sender;\n    }\n\n    function registerNameAndClaim(string calldata name, uint8 _v, bytes32 _r, bytes32 _s)\n    external {\n        registerName(name);\n        claimBroker(_v, _r, _s);\n    }\n\n    function checkCharacters(bytes memory name)\n    internal pure\n    returns (bool)\n    {\n        // Check for only letters and numbers\n        for (uint i; i < name.length; i++) {\n            bytes1 char = name[i];\n            if (\n                !(char >= 0x30 && char <= 0x39) && //9-0\n            !(char >= 0x41 && char <= 0x5A) && //A-Z\n            !(char >= 0x61 && char <= 0x7A)    //a-z\n            )\n                return false;\n        }\n        return true;\n    }\n\n    function nameLength(string memory _str)\n    public pure\n    returns (uint length)\n    {\n        uint i = 0;\n        bytes memory string_rep = bytes(_str);\n\n        while (i < string_rep.length)\n        {\n            if (uint8(string_rep[i] >> 7) == 0)\n                i += 1;\n            else if (uint8(string_rep[i] >> 5) == 0x6)\n                i += 2;\n            else if (uint8(string_rep[i] >> 4) == 0xE)\n                i += 3;\n            else if (uint8(string_rep[i] >> 3) == 0x1E)\n                i += 4;\n            else\n            //For safety\n                i += 1;\n\n            length++;\n        }\n    }\n\n    function toString(address account)\n    public pure\n    returns (string memory)\n    {\n        return toString(abi.encodePacked(account));\n    }\n\n    function toString(uint256 value)\n    public pure\n    returns (string memory)\n    {\n        return toString(abi.encodePacked(value));\n    }\n\n    function toString(bytes memory data)\n    public pure\n    returns (string memory)\n    {\n        bytes memory alphabet = \"0123456789abcdef\";\n\n        bytes memory str = new bytes(2 + data.length * 2);\n        str[0] = \"0\";\n        str[1] = \"x\";\n        for (uint i = 0; i < data.length; i++) {\n            str[2 + i * 2] = alphabet[uint(uint8(data[i] >> 4))];\n            str[3 + i * 2] = alphabet[uint(uint8(data[i] & 0x0f))];\n        }\n        return string(str);\n    }\n}",
  "sourcePath": "/mnt/q/dev/stonks-eth/contracts/EthStonks.sol",
  "compiler": {
    "name": "solc",
    "version": "0.7.6+commit.7338295f.Emscripten.clang"
  },
  "schemaVersion": "3.3.4",
  "updatedAt": "2021-03-20T12:07:57.289Z",
  "devdoc": {
    "kind": "dev",
    "methods": {},
    "version": 1
  },
  "userdoc": {
    "kind": "user",
    "methods": {},
    "version": 1
  }
}